{
  "_format": "hh3-artifact-1",
  "contractName": "MarketplaceV2",
  "sourceName": "contracts/MarketplaceV2.sol",
  "abi": [
    {
      "inputs": [
        {
          "internalType": "address",
          "name": "_owner",
          "type": "address"
        },
        {
          "internalType": "address",
          "name": "_feeRecipient",
          "type": "address"
        },
        {
          "internalType": "uint96",
          "name": "_protocolFeeBps",
          "type": "uint96"
        }
      ],
      "stateMutability": "nonpayable",
      "type": "constructor"
    },
    {
      "inputs": [],
      "name": "InvalidShortString",
      "type": "error"
    },
    {
      "inputs": [
        {
          "internalType": "address",
          "name": "owner",
          "type": "address"
        }
      ],
      "name": "OwnableInvalidOwner",
      "type": "error"
    },
    {
      "inputs": [
        {
          "internalType": "address",
          "name": "account",
          "type": "address"
        }
      ],
      "name": "OwnableUnauthorizedAccount",
      "type": "error"
    },
    {
      "inputs": [],
      "name": "ReentrancyGuardReentrantCall",
      "type": "error"
    },
    {
      "inputs": [
        {
          "internalType": "address",
          "name": "token",
          "type": "address"
        }
      ],
      "name": "SafeERC20FailedOperation",
      "type": "error"
    },
    {
      "inputs": [
        {
          "internalType": "string",
          "name": "str",
          "type": "string"
        }
      ],
      "name": "StringTooLong",
      "type": "error"
    },
    {
      "anonymous": false,
      "inputs": [],
      "name": "EIP712DomainChanged",
      "type": "event"
    },
    {
      "anonymous": false,
      "inputs": [
        {
          "indexed": true,
          "internalType": "address",
          "name": "feeRecipient",
          "type": "address"
        }
      ],
      "name": "FeeRecipientChanged",
      "type": "event"
    },
    {
      "anonymous": false,
      "inputs": [
        {
          "indexed": true,
          "internalType": "address",
          "name": "seller",
          "type": "address"
        },
        {
          "indexed": true,
          "internalType": "uint256",
          "name": "nonce",
          "type": "uint256"
        }
      ],
      "name": "OrderCancelled",
      "type": "event"
    },
    {
      "anonymous": false,
      "inputs": [
        {
          "indexed": false,
          "internalType": "bytes32",
          "name": "orderHash",
          "type": "bytes32"
        },
        {
          "indexed": true,
          "internalType": "address",
          "name": "buyer",
          "type": "address"
        },
        {
          "indexed": false,
          "internalType": "uint256",
          "name": "price",
          "type": "uint256"
        },
        {
          "indexed": false,
          "internalType": "uint256",
          "name": "protocolFee",
          "type": "uint256"
        },
        {
          "indexed": false,
          "internalType": "uint256",
          "name": "royaltyAmount",
          "type": "uint256"
        }
      ],
      "name": "OrderFilled",
      "type": "event"
    },
    {
      "anonymous": false,
      "inputs": [
        {
          "indexed": true,
          "internalType": "address",
          "name": "previousOwner",
          "type": "address"
        },
        {
          "indexed": true,
          "internalType": "address",
          "name": "newOwner",
          "type": "address"
        }
      ],
      "name": "OwnershipTransferred",
      "type": "event"
    },
    {
      "anonymous": false,
      "inputs": [
        {
          "indexed": false,
          "internalType": "uint96",
          "name": "bps",
          "type": "uint96"
        }
      ],
      "name": "ProtocolFeeChanged",
      "type": "event"
    },
    {
      "inputs": [
        {
          "components": [
            {
              "internalType": "address",
              "name": "seller",
              "type": "address"
            },
            {
              "internalType": "address",
              "name": "nft",
              "type": "address"
            },
            {
              "internalType": "uint256",
              "name": "tokenId",
              "type": "uint256"
            },
            {
              "internalType": "address",
              "name": "currency",
              "type": "address"
            },
            {
              "internalType": "uint256",
              "name": "price",
              "type": "uint256"
            },
            {
              "internalType": "uint256",
              "name": "expiration",
              "type": "uint256"
            },
            {
              "internalType": "uint256",
              "name": "nonce",
              "type": "uint256"
            }
          ],
          "internalType": "struct MarketplaceV2.Order",
          "name": "o",
          "type": "tuple"
        },
        {
          "internalType": "bytes",
          "name": "signature",
          "type": "bytes"
        }
      ],
      "name": "buySigned",
      "outputs": [],
      "stateMutability": "payable",
      "type": "function"
    },
    {
      "inputs": [
        {
          "internalType": "uint256",
          "name": "nonce",
          "type": "uint256"
        }
      ],
      "name": "cancelNonce",
      "outputs": [],
      "stateMutability": "nonpayable",
      "type": "function"
    },
    {
      "inputs": [],
      "name": "eip712Domain",
      "outputs": [
        {
          "internalType": "bytes1",
          "name": "fields",
          "type": "bytes1"
        },
        {
          "internalType": "string",
          "name": "name",
          "type": "string"
        },
        {
          "internalType": "string",
          "name": "version",
          "type": "string"
        },
        {
          "internalType": "uint256",
          "name": "chainId",
          "type": "uint256"
        },
        {
          "internalType": "address",
          "name": "verifyingContract",
          "type": "address"
        },
        {
          "internalType": "bytes32",
          "name": "salt",
          "type": "bytes32"
        },
        {
          "internalType": "uint256[]",
          "name": "extensions",
          "type": "uint256[]"
        }
      ],
      "stateMutability": "view",
      "type": "function"
    },
    {
      "inputs": [],
      "name": "feeRecipient",
      "outputs": [
        {
          "internalType": "address",
          "name": "",
          "type": "address"
        }
      ],
      "stateMutability": "view",
      "type": "function"
    },
    {
      "inputs": [
        {
          "components": [
            {
              "internalType": "address",
              "name": "seller",
              "type": "address"
            },
            {
              "internalType": "address",
              "name": "nft",
              "type": "address"
            },
            {
              "internalType": "uint256",
              "name": "tokenId",
              "type": "uint256"
            },
            {
              "internalType": "address",
              "name": "currency",
              "type": "address"
            },
            {
              "internalType": "uint256",
              "name": "price",
              "type": "uint256"
            },
            {
              "internalType": "uint256",
              "name": "expiration",
              "type": "uint256"
            },
            {
              "internalType": "uint256",
              "name": "nonce",
              "type": "uint256"
            }
          ],
          "internalType": "struct MarketplaceV2.Order",
          "name": "o",
          "type": "tuple"
        }
      ],
      "name": "hashOrder",
      "outputs": [
        {
          "internalType": "bytes32",
          "name": "",
          "type": "bytes32"
        }
      ],
      "stateMutability": "view",
      "type": "function"
    },
    {
      "inputs": [
        {
          "internalType": "address",
          "name": "",
          "type": "address"
        },
        {
          "internalType": "uint256",
          "name": "",
          "type": "uint256"
        }
      ],
      "name": "nonceUsed",
      "outputs": [
        {
          "internalType": "bool",
          "name": "",
          "type": "bool"
        }
      ],
      "stateMutability": "view",
      "type": "function"
    },
    {
      "inputs": [],
      "name": "owner",
      "outputs": [
        {
          "internalType": "address",
          "name": "",
          "type": "address"
        }
      ],
      "stateMutability": "view",
      "type": "function"
    },
    {
      "inputs": [],
      "name": "protocolFeeBps",
      "outputs": [
        {
          "internalType": "uint96",
          "name": "",
          "type": "uint96"
        }
      ],
      "stateMutability": "view",
      "type": "function"
    },
    {
      "inputs": [],
      "name": "renounceOwnership",
      "outputs": [],
      "stateMutability": "nonpayable",
      "type": "function"
    },
    {
      "inputs": [
        {
          "internalType": "address",
          "name": "_feeRecipient",
          "type": "address"
        }
      ],
      "name": "setFeeRecipient",
      "outputs": [],
      "stateMutability": "nonpayable",
      "type": "function"
    },
    {
      "inputs": [
        {
          "internalType": "uint96",
          "name": "_bps",
          "type": "uint96"
        }
      ],
      "name": "setProtocolFeeBps",
      "outputs": [],
      "stateMutability": "nonpayable",
      "type": "function"
    },
    {
      "inputs": [
        {
          "internalType": "address",
          "name": "newOwner",
          "type": "address"
        }
      ],
      "name": "transferOwnership",
      "outputs": [],
      "stateMutability": "nonpayable",
      "type": "function"
    },
    {
      "inputs": [
        {
          "components": [
            {
              "internalType": "address",
              "name": "seller",
              "type": "address"
            },
            {
              "internalType": "address",
              "name": "nft",
              "type": "address"
            },
            {
              "internalType": "uint256",
              "name": "tokenId",
              "type": "uint256"
            },
            {
              "internalType": "address",
              "name": "currency",
              "type": "address"
            },
            {
              "internalType": "uint256",
              "name": "price",
              "type": "uint256"
            },
            {
              "internalType": "uint256",
              "name": "expiration",
              "type": "uint256"
            },
            {
              "internalType": "uint256",
              "name": "nonce",
              "type": "uint256"
            }
          ],
          "internalType": "struct MarketplaceV2.Order",
          "name": "o",
          "type": "tuple"
        },
        {
          "internalType": "bytes",
          "name": "sig",
          "type": "bytes"
        }
      ],
      "name": "verify",
      "outputs": [
        {
          "internalType": "bool",
          "name": "",
          "type": "bool"
        }
      ],
      "stateMutability": "view",
      "type": "function"
    }
  ],
  "bytecode": "0x610160604052348015610010575f5ffd5b50604051611d27380380611d2783398101604081905261002f916102f9565b604080518082018252600d81526c26b0b935b2ba383630b1b2ab1960991b602080830191909152825180840190935260018352603160f81b9083015290846001600160a01b03811661009b57604051631e4fbdf760e01b81525f60048201526024015b60405180910390fd5b6100a481610220565b50600180556100b482600261026f565b610120526100c381600361026f565b61014052815160208084019190912060e052815190820120610100524660a05261014f60e05161010051604080517f8b73c3c69bb8fe3d512ecc4cf759cc79239f7b179b0ffacaa9a75d522b39400f60208201529081019290925260608201524660808201523060a08201525f9060c00160405160208183030381529060405280519060200120905090565b60805250503060c0526001600160a01b03821661019f5760405162461bcd60e51b815260206004820152600e60248201526d0666565526563697069656e743d360941b6044820152606401610092565b6103e8816001600160601b031611156101e95760405162461bcd60e51b815260206004820152600c60248201526b0cccaca40e8dede40d0d2ced60a31b6044820152606401610092565b6001600160601b03166001600160a01b039091166c01000000000000000000000000026001600160601b03191617600455506104f3565b5f80546001600160a01b038381166001600160a01b0319831681178455604051919092169283917f8be0079c531659141344cd1fd0a4f28419497f9722a3daafe3b4186f6b6457e09190a35050565b5f60208351101561028a57610283836102a1565b905061029b565b8161029584826103e1565b5060ff90505b92915050565b5f5f829050601f815111156102cb578260405163305a27a960e01b8152600401610092919061049b565b80516102d6826104d0565b179392505050565b80516001600160a01b03811681146102f4575f5ffd5b919050565b5f5f5f6060848603121561030b575f5ffd5b610314846102de565b9250610322602085016102de565b60408501519092506001600160601b038116811461033e575f5ffd5b809150509250925092565b634e487b7160e01b5f52604160045260245ffd5b600181811c9082168061037157607f821691505b60208210810361038f57634e487b7160e01b5f52602260045260245ffd5b50919050565b601f8211156103dc57805f5260205f20601f840160051c810160208510156103ba5750805b601f840160051c820191505b818110156103d9575f81556001016103c6565b50505b505050565b81516001600160401b038111156103fa576103fa610349565b61040e81610408845461035d565b84610395565b6020601f821160018114610440575f83156104295750848201515b5f19600385901b1c1916600184901b1784556103d9565b5f84815260208120601f198516915b8281101561046f578785015182556020948501946001909201910161044f565b508482101561048c57868401515f19600387901b60f8161c191681555b50505050600190811b01905550565b602081525f82518060208401528060208501604085015e5f604082850101526040601f19601f83011684010191505092915050565b8051602080830151919081101561038f575f1960209190910360031b1b16919050565b60805160a05160c05160e0516101005161012051610140516117e36105445f395f610fbc01525f610f8a01525f61121501525f6111ed01525f61114801525f61117201525f61119c01526117e35ff3fe6080604052600436106100bf575f3560e01c80638da5cb5b1161007c578063e5a1562611610057578063e5a156261461024a578063e74b981b1461025d578063e8e24a651461027c578063f2fde38b1461029b575f5ffd5b80638da5cb5b146101f0578063c5f0d9161461020c578063cfdd7aea1461022b575f5ffd5b80631647795e146100c357806335659fb81461011157806346904840146101485780634d8c4a1414610186578063715018a6146101b357806384b0196e146101c9575b5f5ffd5b3480156100ce575f5ffd5b506100fc6100dd3660046114bb565b600560209081525f928352604080842090915290825290205460ff1681565b60405190151581526020015b60405180910390f35b34801561011c575f5ffd5b50600454610130906001600160601b031681565b6040516001600160601b039091168152602001610108565b348015610153575f5ffd5b5060045461016e90600160601b90046001600160a01b031681565b6040516001600160a01b039091168152602001610108565b348015610191575f5ffd5b506101a56101a03660046114fb565b6102ba565b604051908152602001610108565b3480156101be575f5ffd5b506101c761038c565b005b3480156101d4575f5ffd5b506101dd61039f565b604051610108979695949392919061154a565b3480156101fb575f5ffd5b505f546001600160a01b031661016e565b348015610217575f5ffd5b506101c76102263660046115e0565b6103e1565b348015610236575f5ffd5b506101c7610245366004611606565b610491565b6101c761025836600461161d565b6104e0565b348015610268575f5ffd5b506101c761027736600461169d565b610d88565b348015610287575f5ffd5b506100fc61029636600461161d565b610e28565b3480156102a6575f5ffd5b506101c76102b536600461169d565b610e9f565b5f6103867ff3a23abb31a24df07a394cd065eff319e0b0b9f45117c6b4529f702b1fe0c65e6102ec602085018561169d565b6102fc604086016020870161169d565b6040860135610311608088016060890161169d565b6040805160208101969096526001600160a01b03948516908601529183166060850152608084810191909152911660a0838101919091529085013560c0838101919091529085013560e08301528401356101008201526101200160405160208183030381529060405280519060200120610edc565b92915050565b610394610f08565b61039d5f610f34565b565b5f6060805f5f5f60606103b0610f83565b6103b8610fb5565b604080515f80825260208201909252600f60f81b9b939a50919850469750309650945092509050565b6103e9610f08565b6103e8816001600160601b031611156104385760405162461bcd60e51b815260206004820152600c60248201526b0cccaca40e8dede40d0d2ced60a31b60448201526064015b60405180910390fd5b600480546bffffffffffffffffffffffff19166001600160601b0383169081179091556040519081527f287e82d7e96f9ef638407255ed4fc3d476cfcc6067b6e621efb1ebea72fd57829060200160405180910390a150565b335f818152600560209081526040808320858452909152808220805460ff19166001179055518392917fdd003742fb214507783ce004fe55f5ac14f89c6de4a7cd7487e47eb091c6226591a350565b6104e8610fe2565b5f6104f6602085018561169d565b6001600160a01b0316036105395760405162461bcd60e51b815260206004820152600a6024820152693130b21039b2b63632b960b11b604482015260640161042f565b5f8360800135116105765760405162461bcd60e51b8152602060048201526007602482015266070726963653d360cc1b604482015260640161042f565b60a0830135156105c4578260a001354211156105c45760405162461bcd60e51b815260206004820152600d60248201526c1bdc99195c88195e1c1a5c9959609a1b604482015260640161042f565b60055f6105d4602086018661169d565b6001600160a01b0316815260208082019290925260409081015f90812060c0870135825290925290205460ff161561063b5760405162461bcd60e51b815260206004820152600a6024820152691b9bdb98d9481d5cd95960b21b604482015260640161042f565b5f610645846102ba565b90505f6106878285858080601f0160208091040260200160405190810160405280939291908181526020018383808284375f9201919091525061100c92505050565b5090915061069a9050602086018661169d565b6001600160a01b0316816001600160a01b0316146106ea5760405162461bcd60e51b815260206004820152600d60248201526c626164207369676e617475726560981b604482015260640161042f565b5f6106fb604087016020880161169d565b905061070a602087018761169d565b604080516331a9108f60e11b81529088013560048201526001600160a01b0391821691831690636352211e90602401602060405180830381865afa158015610754573d5f5f3e3d5ffd5b505050506040513d601f19601f8201168201806040525081019061077891906116b8565b6001600160a01b0316146107be5760405162461bcd60e51b815260206004820152600d60248201526c1bdddb995c8818da185b99d959609a1b604482015260640161042f565b6040805163020604bf60e21b815290870135600482015230906001600160a01b0383169063081812fc90602401602060405180830381865afa158015610806573d5f5f3e3d5ffd5b505050506040513d601f19601f8201168201806040525081019061082a91906116b8565b6001600160a01b031614806108c257506001600160a01b03811663e985e9c5610856602089018961169d565b6040516001600160e01b031960e084901b1681526001600160a01b039091166004820152306024820152604401602060405180830381865afa15801561089e573d5f5f3e3d5ffd5b505050506040513d601f19601f820116820180604052508101906108c291906116d3565b6108fd5760405162461bcd60e51b815260206004820152600c60248201526b1b9bdd08185c1c1c9bdd995960a21b604482015260640161042f565b600160055f61090f60208a018a61169d565b6001600160a01b0316815260208082019290925260409081015f90812060c08b013582529092528120805460ff19169215159290921790915560045461271090610966906001600160601b031660808a0135611706565b610970919061171d565b90505f8061099661098760408b0160208c0161169d565b8a604001358b60800135611055565b90925090505f816109ab8560808d013561173c565b6109b5919061173c565b90505f6109c860808c0160608d0161169d565b6001600160a01b031603610c155789608001353414610a1b5760405162461bcd60e51b815260206004820152600f60248201526e77726f6e67206d73672e76616c756560881b604482015260640161042f565b8315610abc576004546040515f91600160601b90046001600160a01b03169086908381818185875af1925050503d805f8114610a72576040519150601f19603f3d011682016040523d82523d5f602084013e610a77565b606091505b5050905080610aba5760405162461bcd60e51b815260206004820152600f60248201526e199959481e19995c8819985a5b1959608a1b604482015260640161042f565b505b5f82118015610ad357506001600160a01b03831615155b15610b6f575f836001600160a01b0316836040515f6040518083038185875af1925050503d805f8114610b21576040519150601f19603f3d011682016040523d82523d5f602084013e610b26565b606091505b5050905080610b6d5760405162461bcd60e51b81526020600482015260136024820152721c9bde585b1d1e481e19995c8819985a5b1959606a1b604482015260640161042f565b505b5f610b7d60208c018c61169d565b6001600160a01b0316826040515f6040518083038185875af1925050503d805f8114610bc4576040519150601f19603f3d011682016040523d82523d5f602084013e610bc9565b606091505b5050905080610c0f5760405162461bcd60e51b81526020600482015260126024820152711cd95b1b195c881e19995c8819985a5b195960721b604482015260640161042f565b50610ca8565b5f610c2660808c0160608d0161169d565b90508415610c5257600454610c52906001600160a01b03838116913391600160601b90910416886110dc565b5f83118015610c6957506001600160a01b03841615155b15610c8357610c836001600160a01b0382163386866110dc565b610ca633610c9460208e018e61169d565b6001600160a01b0384169190856110dc565b505b6001600160a01b0385166342842e0e610cc460208d018d61169d565b604080516001600160e01b031960e085901b1681526001600160a01b0390921660048301523360248301528d013560448201526064015f604051808303815f87803b158015610d11575f5ffd5b505af1158015610d23573d5f5f3e3d5ffd5b5050604080518a81526080808f01356020830152918101889052606081018690523393507f614e4dc0454aa3dc8fe902ff7c1c7707d1a77b58bd0f0f1468eefbc413beb60c92500160405180910390a250505050505050610d8360018055565b505050565b610d90610f08565b6001600160a01b038116610dd75760405162461bcd60e51b815260206004820152600e60248201526d0666565526563697069656e743d360941b604482015260640161042f565b600480546001600160601b0316600160601b6001600160a01b038416908102919091179091556040517f167cccccc6e9b2892a740ec13fc1e51d3de8ea384f25bd87fee7412d588637e2905f90a250565b5f5f610e33856102ba565b90505f610e758286868080601f0160208091040260200160405190810160405280939291908181526020018383808284375f9201919091525061100c92505050565b50909150610e889050602087018761169d565b6001600160a01b0391821691161495945050505050565b610ea7610f08565b6001600160a01b038116610ed057604051631e4fbdf760e01b81525f600482015260240161042f565b610ed981610f34565b50565b5f610386610ee861113c565b8360405161190160f01b8152600281019290925260228201526042902090565b5f546001600160a01b0316331461039d5760405163118cdaa760e01b815233600482015260240161042f565b5f80546001600160a01b038381166001600160a01b0319831681178455604051919092169283917f8be0079c531659141344cd1fd0a4f28419497f9722a3daafe3b4186f6b6457e09190a35050565b6060610fb07f00000000000000000000000000000000000000000000000000000000000000006002611265565b905090565b6060610fb07f00000000000000000000000000000000000000000000000000000000000000006003611265565b60026001540361100557604051633ee5aeb560e01b815260040160405180910390fd5b6002600155565b5f5f5f8351604103611043576020840151604085015160608601515f1a6110358882858561130f565b95509550955050505061104e565b505081515f91506002905b9250925092565b60405163152a902d60e11b815260048101839052602481018290525f9081906001600160a01b03861690632a55205a906044016040805180830381865afa9250505080156110c0575060408051601f3d908101601f191682019092526110bd9181019061174f565b60015b6110ce57505f9050806110d4565b90925090505b935093915050565b604080516001600160a01b0385811660248301528416604482015260648082018490528251808303909101815260849091019091526020810180516001600160e01b03166323b872dd60e01b1790526111369085906113d7565b50505050565b5f306001600160a01b037f00000000000000000000000000000000000000000000000000000000000000001614801561119457507f000000000000000000000000000000000000000000000000000000000000000046145b156111be57507f000000000000000000000000000000000000000000000000000000000000000090565b610fb0604080517f8b73c3c69bb8fe3d512ecc4cf759cc79239f7b179b0ffacaa9a75d522b39400f60208201527f0000000000000000000000000000000000000000000000000000000000000000918101919091527f000000000000000000000000000000000000000000000000000000000000000060608201524660808201523060a08201525f9060c00160405160208183030381529060405280519060200120905090565b606060ff831461127f5761127883611443565b9050610386565b81805461128b9061177b565b80601f01602080910402602001604051908101604052809291908181526020018280546112b79061177b565b80156113025780601f106112d957610100808354040283529160200191611302565b820191905f5260205f20905b8154815290600101906020018083116112e557829003601f168201915b5050505050905092915050565b5f80807f7fffffffffffffffffffffffffffffff5d576e7357a4501ddfe92f46681b20a084111561134857505f915060039050826113cd565b604080515f808252602082018084528a905260ff891692820192909252606081018790526080810186905260019060a0016020604051602081039080840390855afa158015611399573d5f5f3e3d5ffd5b5050604051601f1901519150506001600160a01b0381166113c457505f9250600191508290506113cd565b92505f91508190505b9450945094915050565b5f5f60205f8451602086015f885af1806113f6576040513d5f823e3d81fd5b50505f513d9150811561140d57806001141561141a565b6001600160a01b0384163b155b1561113657604051635274afe760e01b81526001600160a01b038516600482015260240161042f565b60605f61144f83611480565b6040805160208082528183019092529192505f91906020820181803683375050509182525060208101929092525090565b5f60ff8216601f81111561038657604051632cd44ac360e21b815260040160405180910390fd5b6001600160a01b0381168114610ed9575f5ffd5b5f5f604083850312156114cc575f5ffd5b82356114d7816114a7565b946020939093013593505050565b5f60e082840312156114f5575f5ffd5b50919050565b5f60e0828403121561150b575f5ffd5b61151583836114e5565b9392505050565b5f81518084528060208401602086015e5f602082860101526020601f19601f83011685010191505092915050565b60ff60f81b8816815260e060208201525f61156860e083018961151c565b828103604084015261157a818961151c565b606084018890526001600160a01b038716608085015260a0840186905283810360c0850152845180825260208087019350909101905f5b818110156115cf5783518352602093840193909201916001016115b1565b50909b9a5050505050505050505050565b5f602082840312156115f0575f5ffd5b81356001600160601b0381168114611515575f5ffd5b5f60208284031215611616575f5ffd5b5035919050565b5f5f5f6101008486031215611630575f5ffd5b61163a85856114e5565b925060e084013567ffffffffffffffff811115611655575f5ffd5b8401601f81018613611665575f5ffd5b803567ffffffffffffffff81111561167b575f5ffd5b86602082840101111561168c575f5ffd5b939660209190910195509293505050565b5f602082840312156116ad575f5ffd5b8135611515816114a7565b5f602082840312156116c8575f5ffd5b8151611515816114a7565b5f602082840312156116e3575f5ffd5b81518015158114611515575f5ffd5b634e487b7160e01b5f52601160045260245ffd5b8082028115828204841417610386576103866116f2565b5f8261173757634e487b7160e01b5f52601260045260245ffd5b500490565b81810381811115610386576103866116f2565b5f5f60408385031215611760575f5ffd5b825161176b816114a7565b6020939093015192949293505050565b600181811c9082168061178f57607f821691505b6020821081036114f557634e487b7160e01b5f52602260045260245ffdfea2646970667358221220b02273030f90f46f30943515fc71aba361811db1c1daf015dd1dd2000205e52764736f6c634300081c0033",
  "linkReferences": {},
  "deployedLinkReferences": {},
  "immutableReferences": {
    "3204": [
      {
        "length": 32,
        "start": 4508
      }
    ],
    "3206": [
      {
        "length": 32,
        "start": 4466
      }
    ],
    "3208": [
      {
        "length": 32,
        "start": 4424
      }
    ],
    "3210": [
      {
        "length": 32,
        "start": 4589
      }
    ],
    "3212": [
      {
        "length": 32,
        "start": 4629
      }
    ],
    "3215": [
      {
        "length": 32,
        "start": 3978
      }
    ],
    "3218": [
      {
        "length": 32,
        "start": 4028
      }
    ]
  },
  "inputSourceName": "project/contracts/MarketplaceV2.sol",
  "buildInfoId": "solc-0_8_28-2846fad7b58f2e827e5c1ed5b38090424d05b8fa"
}